:100000000C942A000C9434000C9434000C943400AA
:100010000C9434000C9434000C9434000C94340090
:100020000C9434000C9434000C9434000C94340080
:100030000C9434000C9434000C9434000C94340070
:100040000C9434000C9434000C9434000C94340060
:100050000C94340011241FBECFE5D8E0DEBFCDBF25
:100060000E9495010C941A020C940000813049F012
:10007000813028F0823039F0833041F406C06ABB09
:10008000089567BB089564BB089561BB08958130EE
:1000900049F0813028F0823039F0833041F406C0D5
:1000A0006BBB089568BB089565BB089562BB089556
:1000B000813029F1813038F0823009F43CC083303E
:1000C00009F06EC053C0442361F42AB381E090E08C
:1000D00002C0880F991F6A95E2F7809582238ABB38
:1000E00008954F3F09F05CC02AB381E090E002C060
:1000F000880F991F6A95E2F7282B2ABB089544239D
:1001000061F427B381E090E002C0880F991F6A95DF
:10011000E2F78095822387BB08954F3F09F040C0E6
:1001200027B381E090E002C0880F991F6A95E2F73B
:10013000282B27BB0895442361F424B381E090E089
:1001400002C0880F991F6A95E2F78095822384BBCD
:1001500008954F3F29F524B381E090E002C0880F55
:10016000991F6A95E2F7282B24BB0895442361F474
:1001700021B381E090E002C0880F991F6A95E2F7F1
:100180008095822381BB08954F3F51F421B381E0D4
:1001900090E002C0880F991F6A95E2F7282B21BBD7
:1001A0000895813029F1813038F0823009F43CC063
:1001B000833009F06EC053C0413059F42BB381E055
:1001C00090E002C0880F991F6A95E2F7282B2BBB9D
:1001D0000895442309F05DC02BB381E090E002C094
:1001E000880F991F6A95E2F7809582238BBB08954B
:1001F000413059F428B381E090E002C0880F991F84
:100200006A95E2F7282B28BB0895442309F041C0E2
:1002100028B381E090E002C0880F991F6A95E2F749
:100220008095822388BB0895413059F425B381E03D
:1002300090E002C0880F991F6A95E2F7282B25BB32
:100240000895442331F525B381E090E002C0880F82
:10025000991F6A95E2F78095822385BB0895413006
:1002600059F422B381E090E002C0880F991F6A958B
:10027000E2F7282B22BB0895442359F422B381E0EE
:1002800090E002C0880F991F6A95E2F7809582235B
:1002900082BB0895813049F0813028F0823039F0F6
:1002A0008330B1F40DC089B303C086B301C083B3FA
:1002B00090E002C0959587956A95E2F78170089560
:1002C00080B390E002C0959587956A95E2F78170BA
:1002D000089588E480B982E082B984E486BF11B8C9
:1002E00081B18C7F81B9089584EA86BF06B607FE86
:1002F000FDCF089584E986BF089583B984E886BF59
:1003000006B607FEFDCF089584EC86BF06B607FE4D
:10031000FDCF83B1089584E886BF06B607FEFDCF02
:1003200083B1089581B1887F08958BB361E00E9405
:10033000360088B360E00E9436000E94690180E0C8
:1003400090E069E00E94EE0184EF91E02CE231E060
:10035000F9013197F1F70197D9F783B1893029F481
:1003600088B360E041E00E94D10008951F93CF93CD
:10037000DF93182FEB010E9474010E9492018830D4
:1003800041F580EA0E947D010E949201883109F5C1
:10039000812F0E947D010E9492018832D1F40E9437
:1003A00074010E9492018031A1F481EA0E947D01D2
:1003B0000E949201803469F40E94840188830E9423
:1003C0009201803511F0DA9A04C00E947A0181E02E
:1003D00001C080E0DF91CF911F9108950F931F938B
:1003E000182F062F0E9474010E9492018830D9F4C0
:1003F00080EA0E947D010E949201883111F0D99A11
:1004000012C0812F0E947D010E949201883259F40E
:10041000802F0E947D010E949201883221F40E9467
:100420007A0181E001C080E01F910F9108950E9440
:0804300069010895F894FFCF63
:00000001FF
