:100000000C942A000C9434000C9434000C943400AA
:100010000C9434000C9434000C9434000C94340090
:100020000C9434000C9434000C9434000C94340080
:100030000C9434000C9434000C9434000C94340070
:100040000C9434000C9434000C9434000C94340060
:100050000C94340011241FBECFE5D8E0DEBFCDBF25
:100060000E9469010C9472010C940000813049F0E7
:10007000813028F0823039F0833041F406C06ABB09
:10008000089567BB089564BB089561BB08958130EE
:1000900049F0813028F0823039F0833041F406C0D5
:1000A0006BBB089568BB089565BB089562BB089556
:1000B000813029F1813038F0823009F43CC083303E
:1000C00009F06EC053C0442361F42AB381E090E08C
:1000D00002C0880F991F6A95E2F7809582238ABB38
:1000E00008954F3F09F05CC02AB381E090E002C060
:1000F000880F991F6A95E2F7282B2ABB089544239D
:1001000061F427B381E090E002C0880F991F6A95DF
:10011000E2F78095822387BB08954F3F09F040C0E6
:1001200027B381E090E002C0880F991F6A95E2F73B
:10013000282B27BB0895442361F424B381E090E089
:1001400002C0880F991F6A95E2F78095822384BBCD
:1001500008954F3F29F524B381E090E002C0880F55
:10016000991F6A95E2F7282B24BB0895442361F474
:1001700021B381E090E002C0880F991F6A95E2F7F1
:100180008095822381BB08954F3F51F421B381E0D4
:1001900090E002C0880F991F6A95E2F7282B21BBD7
:1001A0000895813029F1813038F0823009F43CC063
:1001B000833009F06EC053C0413059F42BB381E055
:1001C00090E002C0880F991F6A95E2F7282B2BBB9D
:1001D0000895442309F05DC02BB381E090E002C094
:1001E000880F991F6A95E2F7809582238BBB08954B
:1001F000413059F428B381E090E002C0880F991F84
:100200006A95E2F7282B28BB0895442309F041C0E2
:1002100028B381E090E002C0880F991F6A95E2F749
:100220008095822388BB0895413059F425B381E03D
:1002300090E002C0880F991F6A95E2F7282B25BB32
:100240000895442331F525B381E090E002C0880F82
:10025000991F6A95E2F78095822385BB0895413006
:1002600059F422B381E090E002C0880F991F6A958B
:10027000E2F7282B22BB0895442359F422B381E0EE
:1002800090E002C0880F991F6A95E2F7809582235B
:1002900082BB0895813049F0813028F0823039F0F6
:1002A0008330B1F40DC089B303C086B301C083B3FA
:1002B00090E002C0959587956A95E2F78170089560
:1002C00080B390E002C0959587956A95E2F78170BA
:1002D000089580E06FEF0E94360080E06FEF0E948B
:0802E0004700FFCFF894FFCFA7
:00000001FF
