:100000000C942A000C943F000C943F000C943F0089
:100010000C943F000C943F000C943F000C943F0064
:100020000C943F000C943F000C943F000C943F0054
:100030000C943F000C943F000C943F000C943F0044
:100040000C943F000C943F000C943F000C943F0034
:100050000C943F0011241FBECFE5D8E0DEBFCDBF1A
:1000600010E0A0E6B0E0EEE2F5E002C005900D92EF
:10007000A636B107D9F70E947F020C9495020C9422
:100080000000813049F0813028F0823039F083302F
:1000900041F406C06ABB089567BB089564BB089528
:1000A00061BB0895813049F0813028F0823039F009
:1000B000833041F406C06BBB089568BB089565BBEF
:1000C000089562BB0895813029F1813038F0823083
:1000D00009F43CC0833009F06EC053C0442361F47E
:1000E0002AB381E090E002C0880F991F6A95E2F779
:1000F000809582238ABB08954F3F09F05CC02AB3E4
:1001000081E090E002C0880F991F6A95E2F7282BE2
:100110002ABB0895442361F427B381E090E002C034
:10012000880F991F6A95E2F78095822387BB08950F
:100130004F3F09F040C027B381E090E002C0880F34
:10014000991F6A95E2F7282B27BB0895442361F491
:1001500024B381E090E002C0880F991F6A95E2F70E
:100160008095822384BB08954F3F29F524B381E015
:1001700090E002C0880F991F6A95E2F7282B24BBF4
:100180000895442361F421B381E090E002C0880F18
:10019000991F6A95E2F78095822381BB08954F3FAE
:1001A00051F421B381E090E002C0880F991F6A9555
:1001B000E2F7282B21BB0895813029F1813038F0F6
:1001C000823009F43CC0833009F06EC053C0413026
:1001D00059F42BB381E090E002C0880F991F6A9513
:1001E000E2F7282B2BBB0895442309F05DC02BB305
:1001F00081E090E002C0880F991F6A95E2F7809530
:1002000082238BBB0895413059F428B381E090E0FC
:1002100002C0880F991F6A95E2F7282B28BB089522
:10022000442309F041C028B381E090E002C0880F68
:10023000991F6A95E2F78095822388BB0895413023
:1002400059F425B381E090E002C0880F991F6A95A8
:10025000E2F7282B25BB0895442331F525B381E02F
:1002600090E002C0880F991F6A95E2F7809582237B
:1002700085BB0895413059F422B381E090E002C07B
:10028000880F991F6A95E2F7282B22BB0895442313
:1002900059F422B381E090E002C0880F991F6A955B
:1002A000E2F78095822382BB0895813049F0813046
:1002B00028F0823039F08330B1F40DC089B303C027
:1002C00086B301C083B390E002C0959587956A9587
:1002D000E2F78170089580B390E002C0959587950C
:1002E0006A95E2F781700895369A0895349BFECF9F
:1002F00034B125B1922F80E0830F911D24EF31E0BE
:10030000AC01429FC001439F900D529F900D11245C
:10031000349A892F8695869590E0089580E060E074
:100320000E944100379A3E9A08950F931F93182F09
:1003300081E060E041E00E94DC0081E061E040E0BB
:100340000E94DC0081E062E041E00E94DC0083E08A
:10035000612F0E94520000E717E1C8010197F1F7F1
:1003600081E062E040E00E94DC00C8010197F1F703
:100370001F910F910895EF92FF920F931F93CF93C8
:10038000DF93062FEC0110E080E7E82E87E1F82EDE
:1003900007C089910E949501C7010197F1F71F5F7E
:1003A0001017B8F388E893E12CE231E0F9013197B6
:1003B000F1F70197D9F788E99AE30197F1F7DF910F
:1003C000CF911F910F91FF90EF9008950F931F937E
:1003D000182F81E060E040E00E94DC0081E061E0F5
:1003E00040E00E94DC0081E062E041E00E94DC002D
:1003F00083E0612F0E94520000E717E1C8010197D6
:10040000F1F781E062E040E00E94DC00C801019762
:10041000F1F71F910F9108950F931F93CF93DF93DF
:100420008B01883090F4880F880F880F805C0E94C1
:10043000E601C0E0D0E0F801EC0FFD1F80810E94D2
:1004400095012196C830D105B1F780E00E94E60100
:10045000DF91CF911F910F9108950F931F93CF9329
:10046000DF93082F10E0CCE2D1E00BC08CE10E94BA
:10047000E60188E893E1FE013197F1F70197D9F79A
:100480001F5F101798F310E0CCE2D1E00BC088E1B9
:100490000E94E60188E893E1FE013197F1F70197A8
:1004A000D9F71F5F101798F3DF91CF911F910F912C
:1004B00008950F931F9384EF91E02CE231E0F9014E
:1004C0003197F1F70197D9F78CE30E94E60100E735
:1004D00017E1C8010197F1F78CE00E94E601C8011D
:1004E0000197F1F781E00E94E60188E99AE301971C
:1004F000F1F786E00E94E6011F910F91089583E0D5
:100500006FEF0E94410082E06FEF0E9441000E9465
:100510008E010E9459020E9474010E94760180E6B9
:0E05200090E064E00E94BB01F6CFF894FFCF9C
:06052E006461746100002D
:00000001FF
