:100000000C942A000C9434000C9434000C943400AA
:100010000C9434000C9434000C9434000C94340090
:100020000C9434000C9434000C9434000C94340080
:100030000C9434000C9434000C9434000C94340070
:100040000C9434000C9434000C9434000C94340060
:100050000C94340011241FBECFE5D8E0DEBFCDBF25
:100060000E9471020C94AF020C940000813049F0A0
:10007000813028F0823039F0833041F406C06ABB09
:10008000089567BB089564BB089561BB08958130EE
:1000900049F0813028F0823039F0833041F406C0D5
:1000A0006BBB089568BB089565BB089562BB089556
:1000B000813029F1813038F0823009F43CC083303E
:1000C00009F06EC053C0442361F42AB381E090E08C
:1000D00002C0880F991F6A95E2F7809582238ABB38
:1000E00008954F3F09F05CC02AB381E090E002C060
:1000F000880F991F6A95E2F7282B2ABB089544239D
:1001000061F427B381E090E002C0880F991F6A95DF
:10011000E2F78095822387BB08954F3F09F040C0E6
:1001200027B381E090E002C0880F991F6A95E2F73B
:10013000282B27BB0895442361F424B381E090E089
:1001400002C0880F991F6A95E2F78095822384BBCD
:1001500008954F3F29F524B381E090E002C0880F55
:10016000991F6A95E2F7282B24BB0895442361F474
:1001700021B381E090E002C0880F991F6A95E2F7F1
:100180008095822381BB08954F3F51F421B381E0D4
:1001900090E002C0880F991F6A95E2F7282B21BBD7
:1001A0000895813029F1813038F0823009F43CC063
:1001B000833009F06EC053C0413059F42BB381E055
:1001C00090E002C0880F991F6A95E2F7282B2BBB9D
:1001D0000895442309F05DC02BB381E090E002C094
:1001E000880F991F6A95E2F7809582238BBB08954B
:1001F000413059F428B381E090E002C0880F991F84
:100200006A95E2F7282B28BB0895442309F041C0E2
:1002100028B381E090E002C0880F991F6A95E2F749
:100220008095822388BB0895413059F425B381E03D
:1002300090E002C0880F991F6A95E2F7282B25BB32
:100240000895442331F525B381E090E002C0880F82
:10025000991F6A95E2F78095822385BB0895413006
:1002600059F422B381E090E002C0880F991F6A958B
:10027000E2F7282B22BB0895442359F422B381E0EE
:1002800090E002C0880F991F6A95E2F7809582235B
:1002900082BB0895813049F0813028F0823039F0F6
:1002A0008330B1F40DC089B303C086B301C083B3FA
:1002B00090E002C0959587956A95E2F78170089560
:1002C00080B390E002C0959587956A95E2F78170BA
:1002D00008956E9A6D9A6C9A6B986A9A689A0895C6
:1002E0008EB1881F8827881F8130D1F78FB108957C
:1002F0008FB98EB1881F8827881F8130D1F7089564
:100300000F931F93182F80E060E041E00E94D1001E
:1003100080E061E040E00E94D10080E062E041E0E6
:100320000E94D10083E0612F0E94470000E717E19F
:10033000C8010197F1F780E062E040E00E94D1003F
:10034000C8010197F1F71F910F9108950F931F9323
:10035000182F80E060E040E00E94D10080E061E082
:1003600040E00E94D10080E062E041E00E94D100C4
:1003700083E0612F0E94470000E717E1C801019761
:10038000F1F780E062E040E00E94D100C8010197EF
:10039000F1F71F910F9108950F931F93CF93DF9360
:1003A0008B01883090F4880F880F880F805C0E9442
:1003B000A601C0E0D0E0F801EC0FFD1F80810E9493
:1003C00080012196C830D105B1F780E00E94A601D6
:1003D000DF91CF911F910F9108950F931F93CF93AA
:1003E000DF93082F10E0CCE2D1E00BC08CE10E943B
:1003F000A60188E893E1FE013197F1F70197D9F75B
:100400001F5F101798F310E0CCE2D1E00BC088E139
:100410000E94A60188E893E1FE013197F1F7019768
:10042000D9F71F5F101798F3DF91CF911F910F91AC
:100430000895EF92FF920F931F93CF93DF93062FB0
:10044000EC0110E080E7E82E87E1F82E07C08991E3
:100450000E948001C7010197F1F71F5F1017B8F3E1
:1004600088E893E12CE231E0F9013197F1F7019747
:10047000D9F780E1801B0E94ED0181E00E94A60176
:1004800088E99AE30197F1F7DF91CF911F910F91DE
:10049000FF90EF9008950F931F9384EF91E02CE26B
:1004A00031E0F9013197F1F70197D9F78CE30E9418
:1004B000A60100E717E1C8010197F1F78CE00E945F
:1004C000A601C8010197F1F781E00E94A60188E921
:1004D0009AE30197F1F786E00E94A6011F910F9120
:1004E0000895CF93DF9383E06FEF0E94360080E0A2
:1004F0006FEF0E9436000E944B0281E065E041E010
:100500000E94580081E066E040E00E94580081E0CF
:1005100064E041E00E94580081E064E040E00E9415
:10052000D10081E067E040E00E9458000E9469012C
:1005300020E335E7CCE2D1E005C0CE010197F1F729
:100540002150304021153105C1F782E50E94780124
:100550000E9470010E94800120E335E7EECFF894FD
:02056000FFCFCB
:00000001FF
