:100000000C942A000C943F000C943F000C943F0089
:100010000C943F000C943F000C943F000C943F0064
:100020000C943F000C943F000C943F000C943F0054
:100030000C943F000C943F000C943F000C943F0044
:100040000C943F000C943F000C943F000C943F0034
:100050000C943F0011241FBECFE5D8E0DEBFCDBF1A
:1000600011E0A0E6B0E0EEECFFE002C005900D92DA
:10007000A836B107D9F70E946B070C94E5070C94DA
:100080000000A0E0B0E0E7E4F0E00C94AE07DC0193
:100090002B01FA019C91923008F439C1EB0188815F
:1000A000823008F433C1943069F4843009F02FC1F0
:1000B00011969C9111978981981709F428C1A0E69F
:1000C000B0E025C1843009F421C18230A9F4923016
:1000D00009F01DC19A01AD0188E0EA010990AE0165
:1000E000E90109929E018150C1F7E20189811196CF
:1000F0009C918923818308C1923009F407C112962B
:100100002D903C901397EB018A819B811496AD90C2
:10011000BD90CD90DC901797EC80FD800E811F8103
:100120009101281B390BB90137FF04C066277727D7
:10013000621B730B603271050CF061C0121613065E
:100140006CF537014801062E04C096948794779485
:1001500067940A94D2F721E030E040E050E004C018
:10016000220F331F441F551F6A95D2F7215030408C
:10017000404050402E213F2140235123211531057D
:100180004105510521F021E030E040E050E07901E7
:100190008A01E628F728082919293CC0232BD1F128
:1001A000260E371E35014601062E04C0969487940C
:1001B000779467940A94D2F721E030E040E050E071
:1001C00004C0220F331F441F551F6A95D2F72150D8
:1001D0003040404050402A213B214C215D212115D7
:1001E00031054105510521F021E030E040E050E0CB
:1001F00059016A01A628B728C828D9280BC082153A
:1002000093052CF01C01AA24BB24650103C0EE2435
:10021000FF24870111969C91D20111968C91981719
:1002200009F445C0992339F0A80197012A193B091F
:100230004C095D0906C0A60195012E193F09400B26
:10024000510B57FD08C011823382228224833583EB
:10025000468357831DC081E08183338222828827B1
:100260009927DC01821B930BA40BB50B8483958328
:10027000A683B7830DC0220F331F441F551F24834D
:100280003583468357838281938101979383828349
:100290002481358146815781DA01C9010197A1097D
:1002A000B1098F5F9F4FAF4FBF4328F30BC09183BE
:1002B00033822282EA0CFB1C0C1D1D1DE482F58298
:1002C0000683178383E080832481358146815781AB
:1002D00057FF1AC0C901AA2797FDA095BA2F8170B0
:1002E0009070A070B0705695479537952795822BE2
:1002F000932BA42BB52B84839583A683B78382810C
:100300009381019693838283DF0101C0D201CD01E5
:10031000CDB7DEB7E2E10C94CA07A0E2B0E0E3E9B2
:10032000F1E00C94BA0769837A838B839C832D83D5
:100330003E834F835887E9E0EE2EF12CEC0EFD1E34
:10034000CE010196B7010E9440058E010F5E1F4F3E
:10035000CE010596B8010E9440058A8991E089275F
:100360008A8BC701B801AE01475E5F4F0E94410012
:100370000E946B04A096E6E00C94D607A0E2B0E0E1
:10038000E4ECF1E00C94BA0769837A838B839C8355
:100390002D833E834F835887F9E0EF2EF12CEC0E2E
:1003A000FD1ECE010196B7010E9440058E010F5E31
:1003B0001F4FCE010596B8010E944005C701B80144
:1003C000AE01475E5F4F0E9441000E946B04A09601
:1003D000E6E00C94D607A0E2B0E0E1EFF1E00C9487
:1003E000AE0769837A838B839C832D833E834F83FF
:1003F0005887CE010196BE01675F7F4F0E9440057E
:10040000CE010596BE016F5E7F4F0E944005998523
:10041000923088F089898230C8F0943019F48230A3
:1004200051F404C0843029F4923081F480E690E0E5
:10043000C6C0923049F420E09A858A89981321E059
:100440002A87CE010996BBC0823049F420E09A8504
:100450008A89981321E02A8BCE014196B0C02D8461
:100460003E844F8458886D887E888F88988CEE24CF
:10047000FF248701AA24BB24650140E050E060E02E
:1004800070E0E0E0F0E0C10181709070892BE9F04C
:10049000E60CF71C081D191D9A01AB012A0D3B1D26
:1004A0004C1D5D1D80E090E0A0E0B0E0E614F70494
:1004B0000805190520F481E090E0A0E0B0E0BA0161
:1004C000A901480F591F6A1F7B1FAA0CBB1CCC1C1B
:1004D000DD1C97FE08C081E090E0A0E0B0E0A82A13
:1004E000B92ACA2ADB2A3196E032F10549F0660CB6
:1004F000771C881C991C5694479437942794C3CF33
:10050000FA85EA892B893C898B859C85280F391FC0
:100510002E5F3F4F17C0CA0181709070892B61F028
:1005200016950795F794E79480E090E0A0E0B0E896
:10053000E82AF92A0A2B1B2B76956795579547953C
:100540002F5F3F4F77FDE7CF0CC0440F551F661F4D
:10055000771F17FD4160EE0CFF1C001F111F21507B
:100560003040403090E0590790E0690790E4790707
:1005700060F32B8F3C8FDB01CA018F779070A070E6
:10058000B07080349105A105B10561F447FD0AC042
:10059000E114F1040105110529F0405C5F4F6F4F34
:1005A0007F4F40781A8EFE1711F081E08A8F4D8FB1
:1005B0005E8F6F8F78A383E0898FCE0149960E946A
:1005C0006B04A096E2E10C94CA07A8E1B0E0EBEE60
:1005D000F2E00C94BA0769837A838B839C832D8322
:1005E0003E834F83588789E0E82EF12CEC0EFD1EE8
:1005F000CE010196B7010E9440058E010F5E1F4F8C
:10060000CE010596B8010E9440058985823040F0F0
:100610008989823028F0C701B8010E94B80501C05D
:100620008FEF6896E6E00C94D607A8E1B0E0EBE126
:10063000F3E00C94BA0769837A838B839C832D83C0
:100640003E834F83588789E0E82EF12CEC0EFD1E87
:10065000CE010196B7010E9440058E010F5E1F4F2B
:10066000CE010596B8010E9440058985823040F090
:100670008989823028F0C701B8010E94B80501C0FD
:1006800081E06896E6E00C94D607A8E0B0E0EBE4E1
:10069000F3E00C94B7079B01AC0183E08983DA0196
:1006A000C9018827B7FD83959927AA27BB27B82EAC
:1006B000211531054105510519F482E089833AC0BD
:1006C0008823A9F0203080E0380780E0480780E8E0
:1006D000580729F460E070E080E09FEC30C0EE2421
:1006E000FF248701E21AF30A040B150B02C07901FB
:1006F0008A018EE1C82ED12CDC82CB82ED82FE8273
:100700000F831887C801B7010E941C0401971816AF
:10071000190684F4082E04C0EE0CFF1C001F111FE4
:100720000A94D2F7ED82FE820F831887C81AD90A7D
:10073000DC82CB82BA82CE0101960E946B0428969D
:10074000E9E00C94D307A8E0B0E0E9EAF3E00C9408
:10075000B6077B018C01611571058105910519F4BE
:1007600082E0898360C083E089838EE1C82ED12C2A
:10077000DC82CB82ED82FE820F831887C801B7012D
:100780000E941C04FC013197F7FF3BC0222733274E
:100790002E1B3F0B57016801022E04C0D694C7944C
:1007A000B794A7940A94D2F740E050E060E070E07C
:1007B00081E090E0A0E0B0E004C0880F991FAA1F7C
:1007C000BB1F2A95D2F70197A109B1098E219F215C
:1007D000A023B1230097A105B10521F041E050E02D
:1007E00060E070E04A295B296C297D294D835E8396
:1007F0006F8378878EE190E08E1B9F0B9C838B83A9
:1008000012C0309781F00E2E04C0EE0CFF1C001FAA
:10081000111F0A94D2F7ED82FE820F831887CE1A39
:10082000DF0ADC82CB821A82CE0101960E946B0421
:100830002896EAE00C94D207EF92FF920F931F9351
:100840007B018C0180E0E81680E0F80681E0080773
:1008500080E0180788F48FEFE816F1040105110510
:1008600031F028F088E090E0A0E0B0E017C080E030
:1008700090E0A0E0B0E012C080E0E81680E0F8066A
:1008800080E0080781E0180728F088E190E0A0E008
:10089000B0E004C080E190E0A0E0B0E020E230E011
:1008A00040E050E0281B390B4A0B5B0B04C0169547
:1008B0000795F794E7948A95D2F7F701E859FF4F27
:1008C0008081281B310941095109C9011F910F91EC
:1008D000FF90EF900895DF92EF92FF920F931F9396
:1008E000FC01E480F58006811781D180808182300F
:1008F00048F480E090E0A0E1B0E0E82AF92A0A2B71
:100900001B2BA5C0843009F49FC0823021F4EE2453
:10091000FF24870105C0E114F1040105110519F454
:10092000E0E0F0E096C0628173819FEF6238790762
:100930000CF05BC022E83FEF261B370B2A31310554
:100940002CF020E030E040E050E02AC0B801A701E0
:10095000022E04C076956795579547950A94D2F76D
:1009600081E090E0A0E0B0E004C0880F991FAA1FCA
:10097000BB1F2A95D2F70197A109B1098E219F21AA
:10098000A023B1230097A105B10521F081E090E0FB
:10099000A0E0B0E09A01AB01282B392B4A2B5B2B4E
:1009A000DA01C9018F779070A070B0708034910522
:1009B000A105B10539F427FF09C0205C3F4F4F4F17
:1009C0005F4F04C0215C3F4F4F4F5F4FE0E0F0E0CE
:1009D0002030A0E03A07A0E04A07A0E45A0710F050
:1009E000E1E0F0E079018A0127C06038710564F523
:1009F000FB01E158FF4FD801C7018F779070A070BD
:100A0000B07080349105A105B10539F4E7FE0DC041
:100A100080E490E0A0E0B0E004C08FE390E0A0E0CC
:100A2000B0E0E80EF91E0A1F1B1F17FF05C0169540
:100A30000795F794E794319687E016950795F79414
:100A4000E7948A95D1F705C0EE24FF248701EFEFE4
:100A5000F0E06E2F679566276795902F9F77D79464
:100A6000DD24D7948E2F8695492F462B582F5D294C
:100A7000B701CA011F910F91FF90EF90DF90089589
:100A8000FC01DB01408151812281622F6F7770E090
:100A9000221F2227221F9381892F880F822B282F24
:100AA00030E0991F9927991F11969C931197211552
:100AB0003105A9F5411551056105710511F482E073
:100AC00037C082E89FEF13969C938E9312979A01FA
:100AD000AB0167E0220F331F441F551F6A95D1F702
:100AE00083E08C930DC0220F331F441F551F1296B5
:100AF0008D919C911397019713969C938E931297C7
:100B0000203080E0380780E0480780E4580758F339
:100B100014962D933D934D935C93179708952F3F13
:100B2000310579F4411551056105710519F484E029
:100B30008C93089564FF03C081E08C9312C01C92D3
:100B400010C02F57304013963C932E93129783E09A
:100B50008C9387E0440F551F661F771F8A95D1F746
:100B6000706414964D935D936D937C9317970895DD
:100B70001F93DC01FB019C91923008F447C08081F7
:100B8000823008F443C0943051F411961C918430A3
:100B900099F58181682F70E0611B71093FC0843035
:100BA00021F0923031F48230B9F18181882389F1CA
:100BB0002DC011961C9111978230F1F08181181788
:100BC000D9F412962D913C911397828193818217CB
:100BD000930794F028173907BCF014968D919D91D6
:100BE0000D90BC91A02D2481358146815781281715
:100BF00039074A075B0718F4112341F00AC082172E
:100C00009307A407B50740F4112319F061E070E0E1
:100C100005C06FEF7FEF02C060E070E0CB011F9175
:100C20000895369A0895EF92FF920F931F93349B85
:100C3000FECF64B170E080E090E00E94A3037B01EE
:100C40008C0125B1722F60E0882777FD8095982F61
:100C50000E9445039B01AC01C801B7010E94BE017F
:100C600020E030E040EA50E40E94EB01349A20E0BA
:100C700030E040E85AE30E94EB011F910F91FF9092
:100C8000EF90089581E060E00E944906379A3E9A0D
:100C90000895823061F0833018F4813069F405C022
:100CA000833039F0843041F406C06ABB089567BBD5
:100CB000089564BB089561BB0895823049F1833083
:100CC00020F4813009F075C007C0833009F43CC0BE
:100CD000843009F06EC053C04F3F59F42AB381E00D
:100CE00090E002C0880F991F6A95E2F7282B2ABB73
:100CF0000895442309F05DC02AB381E090E002C06A
:100D0000880F991F6A95E2F7809582238ABB089520
:100D10004F3F59F427B381E090E002C0880F991F3C
:100D20006A95E2F7282B27BB0895442309F041C0B8
:100D300027B381E090E002C0880F991F6A95E2F71F
:100D40008095822387BB08954F3F59F424B381E0F7
:100D500090E002C0880F991F6A95E2F7282B24BB08
:100D60000895442331F524B381E090E002C0880F58
:100D7000991F6A95E2F78095822384BB08954F3FBF
:100D800059F421B381E090E002C0880F991F6A9561
:100D9000E2F7282B21BB0895442359F421B381E0C5
:100DA00090E002C0880F991F6A95E2F78095822330
:100DB00081BB0895823049F1833020F4813009F0FD
:100DC00075C007C0833009F43CC0843009F06EC0A0
:100DD00053C0413059F42BB381E090E002C0880F3A
:100DE000991F6A95E2F7282B2BBB0895442309F03D
:100DF0005DC02BB381E090E002C0880F991F6A9517
:100E0000E2F7809582238BBB0895413059F428B3D3
:100E100081E090E002C0880F991F6A95E2F7282BC5
:100E200028BB0895442309F041C028B381E090E035
:100E300002C0880F991F6A95E2F78095822388BBCC
:100E40000895413059F425B381E090E002C0880F45
:100E5000991F6A95E2F7282B25BB0895442331F5A5
:100E600025B381E090E002C0880F991F6A95E2F7F0
:100E70008095822385BB0895413059F422B381E0E7
:100E800090E002C0880F991F6A95E2F7282B22BBD9
:100E90000895442359F422B381E090E002C0880F02
:100EA000991F6A95E2F78095822382BB089582306C
:100EB00061F0833018F4813069F405C0833039F073
:100EC000843041F406C06BBB089568BB089565BBD0
:100ED000089562BB0895EF92FF920F931F9384E0F1
:100EE0006FEF0E9449060E9442060E9411060E946E
:100EF00013067B018C0120E030E040EC5FE30E94B0
:100F00001503882324F484E061E00E945707C80198
:100F1000B70120E030E040EC5FE30E94E5021816E4
:100F200074F4C801B70120E030E040E450E40E94CE
:100F30001503882324F484E062E00E945707C80167
:100F4000B70120E030E040E450E40E94E5021816CA
:100F500064F684E064E00E945707C7CF2F923F9267
:100F60004F925F926F927F928F929F92AF92BF92B9
:100F7000CF92DF92EF92FF920F931F93CF93DF9365
:100F8000CDB7DEB7CA1BDB0B0FB6F894DEBF0FBEC2
:100F9000CDBF09942A88398848885F846E847D840F
:100FA0008C849B84AA84B984C884DF80EE80FD8011
:100FB0000C811B81AA81B981CE0FD11D0FB6F89487
:0E0FC000DEBF0FBECDBFED010895F894FFCF48
:100FCE000000000000000000000102020303030302
:100FDE0004040404040404040505050505050505BB
:100FEE00050505050505050506060606060606069B
:100FFE000606060606060606060606060606060683
:10100E00060606060606060607070707070707076A
:10101E000707070707070707070707070707070752
:10102E000707070707070707070707070707070742
:10103E000707070707070707070707070707070732
:10104E00070707070707070708080808080808081A
:10105E000808080808080808080808080808080802
:10106E0008080808080808080808080808080808F2
:10107E0008080808080808080808080808080808E2
:10108E0008080808080808080808080808080808D2
:10109E0008080808080808080808080808080808C2
:1010AE0008080808080808080808080808080808B2
:1010BE0008080808080808080808080808080808A2
:0810CE000808080808080808DA
:00000001FF
